:100000000C9474000C9495000C9495000C9495003D
:100010000C9495000C9495000C9495000C9495000C
:100020000C9495000C9495000C9495000C949500FC
:100030000C9495000C9495000C9495000C949500EC
:100040000C9495000C9495000C9495000C949500DC
:100050000C9495000C9495000C9495000C949500CC
:100060000C9495000C9495000C9495000C949500BC
:100070000C9495000C9495000C9495000C949500AC
:100080000C9495000C9495000C9495000C9495009C
:100090000C9495000C9495000C9495000C9495008C
:1000A0000C9495000C9495000C9495000C9495007C
:1000B0000C9495000C9495000C9495000C9495006C
:1000C0000C9495000C9495000C9495000C9495005C
:1000D0000C9495000C9495000C9495000C9495004C
:1000E0000C9495000C94C80011241FBECFEFD1E2F0
:1000F000DEBFCDBF00E00CBF12E0A0E0B2E0E2EA5C
:10010000F3E000E00BBF02C007900D92AE30B107E4
:10011000D9F722E0AEE0B2E001C01D92A431B207EF
:10012000E1F70E941B010C94CF010C94000083E0C6
:100130008093C50080E48093C40088E08093C10070
:1001400086E08093C20008959091C00095FFFCCF97
:100150008093C600089520E1629FB0011124606879
:1001600020E2829FC0011124682B9091C00095FF6E
:10017000FCCF6093C6008091C00085FFFCCF109239
:10018000C6008091C00085FFFCCF1092C600089584
:100190008A3049F09091C00095FFFCCF8093C60053
:1001A00080E090E008959091C00095FFFCCF9DE025
:1001B0009093C600EFCF9093C5008093C40086E073
:1001C0008093C20088E98093C10008959091C00097
:1001D00095FFFCCF8093C60008958091C00087FFF3
:1001E000FCCF8091C60008958091C000881F8827A9
:1001F000881F0895FC012081222351F031969091AF
:10020000C00095FFFCCF2093C60021912111F7CFAC
:10021000089580E092E09093110280931002109272
:10022000C50082E38093C40086E08093C20088E921
:100230008093C10008950E94090183E08093C50066
:1002400080E48093C40088E08093C10086E08093BE
:10025000C2002698809101018F7B809301012E9A24
:10026000809102018064809302018198809107014E
:100270008D7F80930701899A809108018260809325
:10028000080180910A018D7F80930A0199988091DD
:100290000B01826080930B01A19A31E0799B50C0E1
:1002A0008091090181FF59C08091060181FF62C0E0
:1002B000919B6BC08091000123B14FEF5BE66CED29
:1002C00092E04150504060409040D9F700C000009B
:1002D000829586958695837083278170C82F40E02C
:1002E000D42FAE01440F551F42955295507F54278D
:1002F000407F542722952695269523702327022F89
:10030000017010E0C80182959295907F9827807FB8
:100310009827842B982F90688091C00085FFFCCF90
:100320009093C6008091C00085FFFCCF1092C6005C
:100330008091C00085FFFCCF1092C6007999B0CFA4
:100340002FEF43ED50E3215040405040E1F700C013
:1003500000008091090181FDA7CF6FEF83ED90E34D
:10036000615080409040E1F700C00000809106019C
:1003700081FD9ECF2FEF43ED50E321504040504090
:10038000E1F700C00000919995CF6FEF83ED90E306
:10039000615080409040E1F700C000008BCFF8949E
:0203A000FFCF8D
:0E03A2000000000200000000C8000000000083
:00000001FF
