:100000000C9474000C9495000C9495000C9495003D
:100010000C9495000C9495000C9495000C9495000C
:100020000C9495000C9495000C9495000C949500FC
:100030000C9495000C9495000C9495000C949500EC
:100040000C9495000C9495000C9495000C949500DC
:100050000C9495000C9495000C9495000C949500CC
:100060000C9495000C9495000C9495000C949500BC
:100070000C9495000C9495000C9495000C949500AC
:100080000C9495000C9495000C9495000C9495009C
:100090000C9495000C9495000C9495000C9495008C
:1000A0000C9495000C9495000C9495000C9495007C
:1000B0000C9495000C9495000C9495000C9495006C
:1000C0000C9495000C9495000C9495000C9495005C
:1000D0000C9495000C9495000C9495000C9495004C
:1000E0000C9495000C94E80011241FBECFEFD1E2D0
:1000F000DEBFCDBF00E00CBF12E0A0E0B2E0E6EB57
:10010000F3E000E00BBF02C007900D92AE30B107E4
:10011000D9F722E0AEE0B2E001C01D92A431B207EF
:10012000E1F70E943B010C94D9010C94000083E09C
:100130008093C50080E48093C40088E98093C10067
:1001400086E08093C20008959091C00095FFFCCF97
:100150008093C6000895E22F022E000CFF0BE07C76
:10016000FF270E2EEF2F000CEE1FFF0B000CEE1FD3
:10017000FF1FE06830E1639FB00111246E2BE42F74
:10018000042E000CFF0BE07CFF27F595E795F59515
:10019000E795F595E795F595E795E62B30E2839F92
:1001A000C0011124E82B2F734F739091C00095FF6D
:1001B000FCCFE093C6008091C00085FFFCCF209368
:1001C000C6008091C00085FFFCCF4093C600089513
:1001D0008A3049F09091C00095FFFCCF8093C60013
:1001E00080E090E008959091C00095FFFCCF9DE0E5
:1001F0009093C600EFCF9093C5008093C40086E033
:100200008093C20088E98093C10008959091C00056
:1002100095FFFCCF8093C60008958091C00087FFB2
:10022000FCCF8091C60008958091C000881F882768
:10023000881F0895FC012081222351F0319690916E
:10024000C00095FFFCCF2093C60021912111F7CF6C
:10025000089580E092E09093110280931002109232
:10026000C50082E38093C40086E08093C20088E9E1
:100270008093C10008950E94290183E08093C50006
:1002800080E48093C40088E98093C10086E0809375
:10029000C2002698809101018F7B809301012E9AE4
:1002A000809102018064809302018198809107010E
:1002B0008D7F80930701899A8091080182608093E5
:1002C000080180910A018D7F80930A01999880919D
:1002D0000B01826080930B01A19A50E040E061E045
:1002E000799B5F5F8091090181FF4F5F80910601DB
:1002F00081FF5150919B41508091000133B1829513
:1003000086958695837086278170C82F80E0D82FC8
:10031000FE01EE0FFF1FE295F295F07FFE27E07FD2
:10032000FE2732953695369533703627032F0170A8
:1003300010E0C80182959295907F9827807F98273A
:100340002E2F282B2068852F052E000C990B807CE2
:1003500099279595879595958795959587959595E1
:100360008795282B842F042E000C990B807C9927CD
:10037000082E892F000C881F990B000C881F991FCD
:10038000922F982B342F3F73252F2F738091C0000D
:1003900085FFFCCF9093C6008091C00085FFFCCF05
:1003A0003093C6008091C00085FFFCCF2093C6002B
:0603B00097CFF894FFCF87
:0E03B6000000000200000000E800000000004F
:00000001FF
