:100000000C9474000C9495000C9495000C9495003D
:100010000C9495000C9495000C9495000C9495000C
:100020000C9495000C9495000C9495000C949500FC
:100030000C9495000C9495000C9495000C949500EC
:100040000C9495000C9495000C9495000C949500DC
:100050000C9495000C9495000C9495000C949500CC
:100060000C9495000C9495000C9495000C949500BC
:100070000C9495000C9495000C9495000C949500AC
:100080000C9495000C9495000C9495000C9495009C
:100090000C9495000C9495000C9495000C9495008C
:1000A0000C9495000C9495000C9495000C9495007C
:1000B0000C9495000C9495000C9495000C9495006C
:1000C0000C9495000C9495000C9495000C9495005C
:1000D0000C9495000C9495000C9495000C9495004C
:1000E0000C9495000C94CA0011241FBECFEFD1E2EE
:1000F000DEBFCDBF00E00CBF12E0A0E0B2E0ECE359
:10010000F3E000E00BBF02C007900D92AE30B107E4
:10011000D9F722E0AEE0B2E001C01D92A431B207EF
:10012000E1F70E941D010C949C010C94000083E0F7
:100130008093C50080E48093C40088E98093C10067
:1001400086E08093C20008959091C00095FFFCCF97
:100150008093C600089530E1639FB0011124606868
:1001600030E2839FC0011124682B2F734F7390914D
:10017000C00095FFFCCF6093C6008091C00085FF52
:10018000FCCF2093C6008091C00085FFFCCF409338
:10019000C60008958A3049F09091C00095FFFCCFC9
:1001A0008093C60080E090E008959091C00095FF94
:1001B000FCCF9DE09093C600EFCF9093C500809355
:1001C000C40086E08093C20088E98093C10008954E
:1001D0009091C00095FFFCCF8093C6000895809158
:1001E000C00087FFFCCF8091C60008958091C000B9
:1001F000881F8827881F0895FC012081222351F041
:1002000031969091C00095FFFCCF2093C6002191BC
:100210002111F7CF089580E092E09093110280932E
:1002200010021092C50082E38093C40086E08093A0
:10023000C20088E98093C10008950E940B0183E009
:100240008093C50080E48093C40088E98093C10056
:1002500086E08093C2002698809101018F7B809375
:1002600001012E9A8091020180648093020181989D
:10027000809107018D7F80930701899A8091080101
:1002800082608093080180910A018D7F80930A012A
:10029000999880910B01826080930B01A19A40E0B4
:1002A00030E051E0799B4F5F8091090181FF3F5F12
:1002B0008091060181FF4150919B31508091000156
:1002C00023B1829586958695837085278170C82F86
:1002D00080E0D82FBE01660F771F62957295707F00
:1002E0007627607F762722952695269523702527E9
:1002F000022F017010E0C80182959295907F982797
:10030000807F9827862B982F9068632F6F73242FF8
:100310002F738091C00085FFFCCF9093C600809121
:10032000C00085FFFCCF6093C6008091C00085FFB0
:0C033000FCCF2093C600B6CFF894FFCF9E
:0E033C000000000200000000CA0000000000E7
:00000001FF
